:1000000072C0000030C5000065C500008EC0000051
:100010008CC000008AC0000088C0000086C00000BC
:1000200084C0000082C0000080C000007EC00000CC
:100030007CC000007AC0000078C0000076C00000DC
:1000400074C0000072C0000070C000006EC00000EC
:100050006CC000006AC0000068C0000066C00000FC
:1000600064C00000FDC5000060C000005EC000006C
:100070005CC000005AC0000058C0000056C000001C
:1000800054C0000052C0000050C000004EC000002C
:10009000F7C500004AC0000048C0000046C000008C
:1000A00044C0000042C0000040C000003EC000004C
:1000B0003CC000003AC0000038C0000042C500004B
:1000C00034C0000032C0000030C00000E9C50000AC
:1000D0002CC000002AC00000F3C5000026C00000AC
:1000E00024C00000D00511241FBECFEFD1E2DEBF37
:1000F000CDBF00E00CBF22E0A0E0B2E001C01D9245
:10010000A833B207E1F710E0C3E7D0E000E005C094
:1001100021970109802FFE01FAD7C237D10780E06D
:100120000807B1F79AD00C94C2086ACF7894FC0102
:100130008081813049F4E898E9E6F0E080818260CE
:100140008083E89AE09A0895823041F4E998E9E6DC
:10015000F0E0808188608083E99AE19A0895809137
:100160000002811117C0E1E2F1E080818B608083A1
:10017000E3E7F0E080818260808388E893E19093F8
:10018000290180932801109225011092240181E019
:10019000809300020895CF93DF93EC016883613070
:1001A00029F450980898589A109A06C0623021F4A1
:1001B00051980998599A119ACE01B8DFCE01CFDF34
:1001C000DF91CF910895CF92DF92EF92FF920F933C
:1001D0001F93FC01C584D684E784F088C186D2864B
:1001E000E386F48601891289238934890587168775
:1001F0002787308B458956896789708D418B528B53
:10020000638B748B85819681A781B085858B968B56
:10021000A78BB08F0C0D1D1D2E1D3F1D400F511FB4
:10022000621F731F840F951FA61FB71FB595A79553
:1002300097958795B595A79597958795818392838F
:10024000A383B48315821682178210861F910F91A3
:10025000FF90EF90DF90CF900895CF93DF93CDB7CD
:10026000DEB7CD55D1090FB6F894DEBF0FBECDBFB6
:100270007894A9D4B4D4188E198E1A8E1B8E1C8E25
:100280001D8E1E8E1F8E18A219A21AA21BA21DA2BD
:100290001CA21FA21EA219A618A61BA61AA61DA65E
:1002A0001CA61CAA1DAA1EAA1FAA18AE19AE1AAE19
:1002B0001BAE1CAE1DAE1EAE1FAE22961FAE1EAEF6
:1002C000229724961FAE1EAE249726961FAE1EAE12
:1002D000269728961FAE1EAE28972A961FAE1EAEF2
:1002E0002A97CE0101965DD18ED4682FCE0101965A
:1002F000D2D1CE0101962CD2CE0101967AD3F4CF81
:10030000FC0180818130A1F4249A279A269AE0E8A2
:10031000F0E0808182628083E1E8F0E080818A61A0
:10032000808389EF90E09093870080938600089502
:100330008230C9F4E1E0F1E08081806480838081D3
:1003400080628083259AE0E8F0E080818268808383
:10035000E1E8F0E080818A61808389EF90E090930A
:100360008700809386000895FC018081813019F018
:10037000823021F008952C9A2F980895E2E0F1E060
:1003800080818064808380818F7D80830895FC01DB
:100390008081813019F0823021F008952C982F9AB5
:1003A0000895E2E0F1E080818F7B8083808180622C
:1003B00080830895FC018081813019F0823041F002
:1003C00008952C982F9810928B0010928A0008950F
:1003D000E2E0F1E080818F7B808380818F7D80836C
:1003E000109289001092880008950F931F93CF9365
:1003F000DF938C01EB011C161D060CF4B5DFDD2329
:100400002CF4D195C195D109C801C1DFC93FD105EF
:1004100014F0C9EFD0E0F8018081813019F082300A
:1004200031F009C0D0938B00C0938A0004C0D093F0
:100430008900C0938800DF91CF911F910F9108959B
:10044000CF93DF93EC0168835BDFCE01B3DF60E025
:1004500070E0CE01CADFDF91CF910895CF92DF9295
:10046000EF92FF920F931F93FC01408351836283AD
:1004700073830483158326833783C086D186E286FF
:10048000F3861F910F91FF90EF90DF90CF9008952A
:10049000FB01808191812817390714F4318320836F
:1004A000808191818417950714F4518340830895C6
:1004B000CF92DF92EF92FF920F931F93CF93DF9330
:1004C000EC018B016C857D857B01E01AF10AFF86CA
:1004D000EE86B7010F2C000C880B990B01D52881F3
:1004E00039814A815B818CD5C8D47B8F6A8F6A89B8
:1004F0007B896E0D7F1D7B8B6A8B072E000C880B12
:10050000990BEED42C813D814E815F8179D5B5D494
:100510007F8B6E8BBE016A5E7F4F25EA30E04BE534
:100520005FEFCE01B5DF88899989B801681B790B27
:10053000072E000C880B990BD3D4288539854A8562
:100540005B855ED59AD46B017C01798F688F198B9E
:10055000088B6E857F85072E000C880B990BC0D405
:100560009F7720E030E040E85FE346D5181674F44A
:100570002A8D3B8D8E899F89820F931F8C199D092F
:100580002C893D89820F931F9D8B8C8B8C899D8933
:10059000DF91CF911F910F91FF90EF90DF90CF905F
:1005A00008953F924F925F926F927F928F929F92A7
:1005B000AF92BF92CF92DF92EF92FF920F931F9371
:1005C000CF93DF93EC013C018CE0680E711C4E016F
:1005D000E5E18E0E911C0F2EF1E04F2EF2E05F2E22
:1005E000F02D5E01F7E1AF0EB11C33243394F3011B
:1005F00011921192119211923F01632DC40120DFDB
:10060000632DC201C8DD0F2EF3E3CF2EDC2CFBEEF1
:10061000EF2EF0E4FF2EF02D00E010E098014DECFD
:100620005CEC6CE170E4C50119DFFFEF8F1A9F0AE3
:10063000339489E1480E511CECE1AE0EB11CF3E09D
:100640003F12D5CFFE01EB5AFF4F1082118212826A
:100650001382349610821182128213823A9780EFAD
:1006600090E09183808381E08C8B198218821B82B9
:100670001A82DF91CF911F910F91FF90EF90DF9041
:10068000CF90BF90AF909F908F907F906F905F9032
:100690004F903F900895663639F0633709F452C0A1
:1006A000623609F054C026C0FC01E15BFF4F208197
:1006B0003181FC013183208313821282EF5AFF4F74
:1006C0004CE35FE060E070E04083518362837383BA
:1006D00034964DE658E060E070E0408351836283D9
:1006E00073833496108211821282138221E0FC01FE
:1006F000248B0895FC01E15BFF4F2081318131950E
:1007000021953109FC013183208313821282EF5A33
:10071000FF4F4CE35FE060E070E040835183628311
:10072000738334964DE658E060E070E04083518377
:100730006283738334961082118212821382FC01C9
:10074000148A0895FC011182108213821282089586
:100750000F931F93CF93DF93EC01088119818A8156
:100760009B81B801680F791F7D836C83081B190B6F
:100770001F830E83072E000C880B990BB1D320E04A
:1007800030E04AE753E43CD420E030E84BE355E462
:100790000CD373D379876887B801110F880B990B35
:1007A0009FD320E030E04AE753E42AD420E030E849
:1007B0004BE355E4FAD261D37B876A876C857D85EC
:1007C0008E859F855AD37CA36BA38E01015C1F4F3E
:1007D000688979898A899B8950D3F80171836083FC
:1007E000DF91CF911F910F9108958F929F92AF92B9
:1007F000BF92CF92DF92EF92FF920F931F93CF930E
:10080000DF93EC01FC01E75AFF4F8081918199232E
:100810001CF49195819591098C01FE01EB5AFF4FD3
:10082000C080D180E280F380C701B60159D34B016B
:100830005C012DEC3CEC4CE45EE3E2D31ED360178C
:100840007107CCF18C898823D9F02DEC3CEC4CEC71
:100850005DE36C857D858E859F8543D26C877D8722
:100860008E879F872DEC3CEC4CEC5DE368897989A1
:100870008A899B8936D2688B798B8A8B9B8B89C0BE
:100880002DEC3CEC4CEC5DE36C857D858E859F8585
:1008900027D26C877D878E879F872DEC3CEC4CECB4
:1008A0005DE3688979898A899B891AD2688B798BFB
:1008B0008A8B9B8B6EC023E333E343E35FE3C50185
:1008C000B4019ED3DAD2061717070CF43FC0C01646
:1008D000D106CCF18C898823D9F02DEC3CEC4CEC82
:1008E0005DE36C857D858E859F85FAD16C877D87DC
:1008F0008E879F872DEC3CEC4CEC5DE36889798911
:100900008A899B89EDD1688B798B8A8B9B8B41C0BF
:100910002DEC3CEC4CEC5DE36C857D858E859F85F4
:10092000E0D16C877D878E879F872DEC3CEC4CEC6B
:100930005DE3688979898A899B89D3D1688B798BB2
:100940008A8B9B8B26C060177107BCF06885798500
:10095000072E000C880B990BC3D26C877D878E877E
:100960009F876A857B85072E000C880B990BB8D270
:10097000688B798B8A8B9B8B0CC01C861D861E8690
:100980001F86188A198A1A8A1B8A198218821B8262
:100990001A82C6013DD189E02ED1FE01E75AFF4FF0
:1009A0008081918199231CF491958195910930D191
:1009B00089E021D16C857D858E859F855ED2CB01B6
:1009C00027D189E018D1688979898A899B8955D28C
:1009D000CB011ED18AE00FD1DF91CF911F910F91F2
:1009E000FF90EF90DF90CF90BF90AF909F908F904F
:1009F00008950F931F93CF93DF93EC0180913302FF
:100A0000882351F101E012E0F801418152816381B4
:100A10007481FE01E75AFF4F80819181A281B381E9
:100A2000840F951FA61FB71F80839183A283B38372
:100A3000BA01CE0147963CDDBC01CE014596D5DC1E
:100A4000F801628D738DCE01C39632DDBC01CE01FB
:100A50004696CBDC10923302CE01C7DEDF91CF91F8
:100A60001F910F9108951F920F920FB60F921124AC
:100A70000BB60F928F939F93AF93BF93EF93FF9318
:100A8000009B0EC0E1E0F2E085819681A781B085F0
:100A90000196A11DB11D85839683A783B0870DC0E4
:100AA000E1E0F2E085819681A781B0850197A109F7
:100AB000B10985839683A783B087FF91EF91BF919A
:100AC000AF919F918F910F900BBE0F900FBE0F9023
:100AD0001F9018951F920F920FB60F9211240BB60C
:100AE0000F928F939F93AF93BF93EF93FF93019BCD
:100AF0000EC0E1E0F2E0868D978DA0A1B1A1019634
:100B0000A11DB11D868F978FA0A3B1A30DC0E1E0F9
:100B1000F2E0868D978DA0A1B1A10197A109B1093D
:100B2000868F978FA0A3B1A3FF91EF91BF91AF9153
:100B30009F918F910F900BBE0F900FBE0F901F9043
:100B400018951F920F920FB60F9211240BB60F92A9
:100B50002F933F934F935F936F937F938F939F93C5
:100B6000AF93BF93EF93FF9381E092E02CDB8AE198
:100B700092E029DB81E080933302FF91EF91BF91F6
:100B8000AF919F918F917F916F915F914F913F9125
:100B90002F910F900BBE0F900FBE0F901F901895C6
:100BA000E1E0F2E011821282138214821582168231
:100BB00017821086128E138E148E158E168E178E37
:100BC00010A211A208951092C50087E68093C40078
:100BD00088E98093C10086E08093C2000895109256
:100BE000350187E68093340188E98093310186E0FE
:100BF000809332010895E0ECF0E0908195FFFDCF05
:100C00008093C600089580913402109234020895B2
:100C10000F931F93CF93DF93CDB7DEB764970FB6D3
:100C2000F894DEBF0FBECDBF4AE0BE016F5F7F4FBD
:100C300076D28981882349F08E010E5F1F4FDBDF5A
:100C4000F80181918F018111FACF64960FB6F89463
:100C5000DEBF0FBECDBFDF91CF911F910F910895E1
:100C60001F920F920FB60F9211248F938091C6009E
:100C7000809337028F910F900FBE0F901F901895A1
:100C80001F920F920FB60F9211248F938091CE0076
:100C9000809336028F910F900FBE0F901F90189582
:100CA0001F920F920FB60F9211248F938091D6004E
:100CB000809335028F910F900FBE0F901F90189563
:100CC0001F920F920FB60F9211248F9380913601CD
:100CD000809334028F910F900FBE0F901F90189544
:100CE0005058BB27AA270ED04DC13ED130F043D17A
:100CF00020F031F49F3F11F41EF433C10EF4E0955F
:100D0000E7FB29C1E92F4FD180F3BA1762077307B8
:100D10008407950718F071F49EF567C10EF4E0950D
:100D20000B2EBA2FA02D0B01B90190010C01CA01A5
:100D3000A0011124FF27591B99F0593F50F4503E50
:100D400068F11A16F040A22F232F342F4427585F42
:100D5000F3CF469537952795A795F0405395C9F75A
:100D60007EF41F16BA0B620B730B840BBAF0915012
:100D7000A1F0FF0FBB1F661F771F881FC2F70EC0B1
:100D8000BA0F621F731F841F48F487957795679584
:100D9000B795F7959E3F08F0B3CF9395880F08F06D
:100DA0009927EE0F9795879508950CD0EBC0E3D067
:100DB00040F0DAD030F021F45F3F19F0CCC051118F
:100DC00015C1CFC0F0D098F39923C9F35523B1F3DF
:100DD000951B550BBB27AA2762177307840738F0AA
:100DE0009F5F5F4F220F331F441FAA1FA9F333D009
:100DF0000E2E3AF0E0E830D091505040E695001CBD
:100E0000CAF729D0FE2F27D0660F771F881FBB1F78
:100E1000261737074807AB07B0E809F0BB0B802D52
:100E2000BF01FF2793585F4F2AF09E3F510568F09E
:100E300092C0DCC05F3FECF3983EDCF3869577957B
:100E40006795B795F7959F5FC9F7880F911D9695A0
:100E5000879597F90895E1E0660F771F881FBB1FFC
:100E6000621773078407BA0720F0621B730B840BA9
:100E7000BA0BEE1F88F7E095089504D06894B1117D
:100E8000B5C0089598D088F09F5790F0B92F992752
:100E9000B751A0F0D1F0660F771F881F991F1AF085
:100EA000BA95C9F712C0B13081F09FD0B1E0089572
:100EB0009CC0672F782F8827B85F39F0B93FCCF3F3
:100EC000869577956795B395D9F73EF4909580957B
:100ED000709561957F4F8F4F9F4F0895E89409C09B
:100EE00097FB3EF490958095709561957F4F8F4F5D
:100EF0009F4F9923A9F0F92F96E9BB279395F69573
:100F0000879577956795B795F111F8CFFAF4BB0FF0
:100F100011F460FF1BC06F5F7F4F8F4F9F4F16C054
:100F2000882311F096E911C0772321F09EE8872FDE
:100F3000762F05C0662371F096E8862F70E060E09A
:100F40002AF09A95660F771F881FDAF7880F969513
:100F5000879597F9089597F99F6780E870E060E0BA
:100F600008959FEF80EC089500240A941616170642
:100F700018060906089500240A941216130614068A
:100F800005060895092E0394000C11F4882352F0ED
:100F9000BB0F40F4BF2B11F460FF04C06F5F7F4FA5
:100FA0008F4F9F4F089557FD9058440F551F59F08C
:100FB0005F3F71F04795880F97FB991F61F09F3F46
:100FC00079F087950895121613061406551FF2CF6F
:100FD0004695F1DF08C0161617061806991FF1CFBF
:100FE00086957105610508940895E894BB276627E6
:100FF0007727CB0197F9089566D008F48FEF08950D
:101000000BD0C0CFB1DF28F0B6DF18F0952309F080
:10101000A2CFA7CF1124EACFC6DFA0F3959FD1F3CB
:10102000950F50E0551F629FF001729FBB27F00D96
:10103000B11D639FAA27F00DB11DAA1F649F6627EB
:10104000B00DA11D661F829F2227B00DA11D621F3A
:10105000739FB00DA11D621F839FA00D611D221FF4
:10106000749F3327A00D611D231F849F600D211DD8
:10107000822F762F6A2F11249F5750408AF0E1F07B
:1010800088234AF0EE0FFF1FBB1F661F771F881FC4
:1010900091505040A9F79E3F510570F05CCFA6CF0C
:1010A0005F3FECF3983EDCF3869577956795B795AF
:1010B000F795E7959F5FC1F7FE2B880F911D9695D9
:1010C000879597F90895990F0008550FAA0BE0E846
:1010D000FEEF16161706E807F907C0F012161306FA
:1010E000E407F50798F0621B730B840B950B39F43A
:1010F0000A2661F0232B242B252B21F408950A26A0
:1011000009F4A140A6958FEF811D811D0895EE0F72
:10111000FF1F881F8BBF0790F691E02D1994BB2706
:101120004A3031F4992322F4BDE2909581959F4F86
:1011300001C0BB27FB015527AA27880F991FAA1FAB
:10114000A41710F0A41B83955051B9F7A05DAA33E2
:1011500008F0A95DA193009779F7B111B1931192AD
:10116000CB0100C0DC01FC01672F71917723E1F70F
:10117000329704C07C916D9370836291AE17BF0764
:08118000C8F30895F894FFCFB5
:00000001FF
