:1000000072C000001BC1000050C100008DC0000084
:100010008BC0000089C0000087C0000085C00000C0
:1000200083C0000081C000007FC000007DC00000D0
:100030007BC0000079C0000077C0000075C00000E0
:1000400073C0000071C000006FC000006DC00000F0
:100050006BC0000069C0000067C0000065C0000000
:1000600063C0000086C200005FC000005DC00000E9
:100070005BC0000059C0000057C0000055C0000020
:1000800053C0000051C000004FC000004DC0000030
:1000900080C2000049C0000047C0000045C0000009
:1000A00043C0000041C000003FC000003DC0000050
:1000B0003BC0000039C0000037C000002DC1000067
:1000C00033C0000031C000002FC0000072C2000029
:1000D0002BC0000029C000007CC2000025C0000029
:1000E00023C00000BC0111241FBECFEFD1E2DEBF50
:1000F000CDBF00E00CBF22E0A0E0B2E001C01D9245
:10010000A631B207E1F710E0C3E7D0E000E005C098
:1001100021970109802FFE016CD2C237D10780E000
:100120000807B1F768D0A0C26BCF7894FC0180813A
:10013000813049F4E898E9E6F0E0808182608083CC
:10014000E89AE09A0895823049F4E998E9E6F0E007
:10015000808188608083E99AE19A0895833041F430
:10016000EA98E9E6F0E0808180628083EA9AE29A88
:100170000895E1E2F1E080818B608083E3E7F0E0C5
:1001800080818260808388E893E190932901809345
:10019000280110922501109224010895CF93DF9336
:1001A000EC016883613029F450980898589A109AA5
:1001B0000DC0623029F451980998599A119A06C0D5
:1001C000633021F452980A985A9A129ACE01ADDF00
:1001D000CE01CFDFDF91CF910895FC01858196811B
:1001E000A781B08581839283A383B483158216820D
:1001F000178210860895CF93DF931F921F92CDB779
:10020000DEB761E0CE0101966AD162E0CE010296CE
:1002100066D161E080E092E0C1DF62E089E092E0D7
:10022000BDDF6BD169EF70E0CE0101962DD169EF92
:1002300070E0CE01029628D17894FFCF1F920F92E2
:100240000FB60F9211240BB60F928F939F93AF931B
:10025000BF93EF93FF93009B0EC0E0E0F2E0858137
:100260009681A781B0850196A11DB11D85839683D6
:10027000A783B0870DC0E0E0F2E085819681A78179
:10028000B0850197A109B10985839683A783B087BB
:10029000FF91EF91BF91AF919F918F910F900BBE06
:1002A0000F900FBE0F901F9018951F920F920FB6D0
:1002B0000F9211240BB60F928F939F93AF93BF931E
:1002C000EF93FF93019B0EC0E0E0F2E086859785F7
:1002D000A089B1890196A11DB11D86879787A08B42
:1002E000B18B0DC0E0E0F2E086859785A089B189E9
:1002F0000197A109B10986879787A08BB18BFF91E0
:10030000EF91BF91AF919F918F910F900BBE0F9086
:100310000FBE0F901F9018951F920F920FB60F925D
:1003200011240BB60F922F933F934F935F936F93CC
:100330007F938F939F93AF93BF93EF93FF9389E046
:1003400092E04BDF80910A0290910B02EAD08AE0A2
:10035000E0D0FF91EF91BF91AF919F918F917F91ED
:100360006F915F914F913F912F910F900BBE0F9026
:100370000FBE0F901F901895E0E0F2E011821282FC
:1003800013821482158216821782108612861386B3
:100390001486158616861786108A118A0895FC0120
:1003A00080818130A1F4249A279A269AE0E8F0E02F
:1003B000808182628083E1E8F0E080818A618083CD
:1003C00089EF90E0909387008093860008958230B3
:1003D000C9F4E1E0F1E08081806480838081806203
:1003E0008083259AE0E8F0E0808182688083E1E8FC
:1003F000F0E080818A61808389EF90E090938700AC
:10040000809386000895FC018081813019F082304C
:1004100021F008952C9A2F980895E2E0F1E0808170
:100420008064808380818F7D80830895FC0180813A
:10043000813019F0823021F008952C982F9A089578
:10044000E2E0F1E080818F7B808380818062808325
:100450000895FC018081813019F0823041F00895C7
:100460002C982F9810928B0010928A000895E2E049
:10047000F1E080818F7B808380818F7D80831092EB
:1004800089001092880008950F931F93CF93DF93F4
:100490008C01EB011C161D060CF4B5DFDD232CF4DA
:1004A000D195C195D109C801C1DFC93FD10514F06B
:1004B000C9EFD0E0F8018081813019F0823031F04D
:1004C00009C0D0938B00C0938A0004C0D0938900E8
:1004D000C0938800DF91CF911F910F910895CF9322
:1004E000DF93EC0168835BDFCE01B3DF60E070E097
:1004F000CE01CADFDF91CF9108951092C50089E146
:100500008093C40088E98093C10086E08093C20094
:100510000895E0ECF0E0908195FFFDCF8093C60058
:1005200008950F931F93CF93DF93CDB7DEB76497F2
:100530000FB6F894DEBF0FBECDBF4AE0BE016F5FBD
:100540007F4F5FD08981882349F08E010E5F1F4F56
:10055000E0DFF80181918F018111FACF64960FB627
:10056000F894DEBF0FBECDBFDF91CF911F910F91E9
:1005700008951F920F920FB60F9211248F938091BE
:10058000C600809315028F910F900FBE0F901F90A1
:1005900018951F920F920FB60F9211248F9380918E
:1005A000CE00809314028F910F900FBE0F901F907A
:1005B00018951F920F920FB60F9211248F9380916E
:1005C000D600809312028F910F900FBE0F901F9054
:1005D00018951F920F920FB60F9211248F9380914E
:1005E0003601809313028F910F900FBE0F901F90D2
:1005F0001895EE0FFF1F881F8BBF0790F691E02D17
:100600001994BB274A3031F4992322F4BDE2909526
:1006100081959F4F01C0BB27FB015527AA27880F53
:10062000991FAA1FA41710F0A41B83955051B9F766
:10063000A05DAA3308F0A95DA193009779F7B111E5
:10064000B1931192CB0100C0DC01FC01672F7191C5
:100650007723E1F7329704C07C916D9370836291A8
:0C066000AE17BF07C8F30895F894FFCF51
:00000001FF
